{
  "contractName": "MeuContrato",
  "abi": [
    {
      "inputs": [
        {
          "internalType": "uint256",
          "name": "_minPessoas",
          "type": "uint256"
        },
        {
          "internalType": "uint256",
          "name": "_maxPessoas",
          "type": "uint256"
        },
        {
          "internalType": "uint256",
          "name": "_taxaAdmin",
          "type": "uint256"
        }
      ],
      "stateMutability": "nonpayable",
      "type": "constructor"
    },
    {
      "inputs": [
        {
          "internalType": "uint256",
          "name": "",
          "type": "uint256"
        }
      ],
      "name": "carteira",
      "outputs": [
        {
          "internalType": "address",
          "name": "carteiraUsuario",
          "type": "address"
        },
        {
          "internalType": "uint256",
          "name": "valorAparelho",
          "type": "uint256"
        },
        {
          "internalType": "uint256",
          "name": "saldo",
          "type": "uint256"
        }
      ],
      "stateMutability": "view",
      "type": "function"
    },
    {
      "inputs": [],
      "name": "maxPessoas",
      "outputs": [
        {
          "internalType": "uint256",
          "name": "",
          "type": "uint256"
        }
      ],
      "stateMutability": "view",
      "type": "function"
    },
    {
      "inputs": [],
      "name": "minPessoas",
      "outputs": [
        {
          "internalType": "uint256",
          "name": "",
          "type": "uint256"
        }
      ],
      "stateMutability": "view",
      "type": "function"
    },
    {
      "inputs": [],
      "name": "quantUsuario",
      "outputs": [
        {
          "internalType": "uint256",
          "name": "",
          "type": "uint256"
        }
      ],
      "stateMutability": "view",
      "type": "function"
    },
    {
      "inputs": [],
      "name": "taxaAdmin",
      "outputs": [
        {
          "internalType": "uint256",
          "name": "",
          "type": "uint256"
        }
      ],
      "stateMutability": "view",
      "type": "function"
    },
    {
      "inputs": [
        {
          "internalType": "address",
          "name": "cliente",
          "type": "address"
        },
        {
          "internalType": "uint256",
          "name": "valorAssegurado",
          "type": "uint256"
        }
      ],
      "name": "adicionarUsuario",
      "outputs": [],
      "stateMutability": "nonpayable",
      "type": "function"
    },
    {
      "inputs": [],
      "name": "adicionarDinheiro",
      "outputs": [],
      "stateMutability": "payable",
      "type": "function"
    },
    {
      "inputs": [],
      "name": "verSaldo",
      "outputs": [
        {
          "internalType": "uint256",
          "name": "",
          "type": "uint256"
        }
      ],
      "stateMutability": "view",
      "type": "function"
    },
    {
      "inputs": [],
      "name": "contratoSaldo",
      "outputs": [
        {
          "internalType": "uint256",
          "name": "",
          "type": "uint256"
        }
      ],
      "stateMutability": "view",
      "type": "function"
    },
    {
      "inputs": [],
      "name": "visualizarCarteiras",
      "outputs": [
        {
          "components": [
            {
              "internalType": "address",
              "name": "carteiraUsuario",
              "type": "address"
            },
            {
              "internalType": "uint256",
              "name": "valorAparelho",
              "type": "uint256"
            },
            {
              "internalType": "uint256",
              "name": "saldo",
              "type": "uint256"
            }
          ],
          "internalType": "struct MeuContrato.Carteira[]",
          "name": "",
          "type": "tuple[]"
        }
      ],
      "stateMutability": "view",
      "type": "function"
    },
    {
      "inputs": [],
      "name": "verSaldoAdm",
      "outputs": [
        {
          "internalType": "uint256",
          "name": "",
          "type": "uint256"
        }
      ],
      "stateMutability": "view",
      "type": "function"
    },
    {
      "inputs": [
        {
          "internalType": "uint256",
          "name": "quantidade",
          "type": "uint256"
        }
      ],
      "name": "retirarTaxas",
      "outputs": [],
      "stateMutability": "nonpayable",
      "type": "function"
    },
    {
      "inputs": [
        {
          "internalType": "address",
          "name": "_indenizado",
          "type": "address"
        },
        {
          "internalType": "uint256",
          "name": "valorIndenizacao",
          "type": "uint256"
        }
      ],
      "name": "indenizar",
      "outputs": [],
      "stateMutability": "nonpayable",
      "type": "function"
    },
    {
      "inputs": [
        {
          "internalType": "address",
          "name": "_usuario",
          "type": "address"
        }
      ],
      "name": "removerUsuario",
      "outputs": [],
      "stateMutability": "nonpayable",
      "type": "function"
    },
    {
      "inputs": [],
      "name": "viabilidadeContrato",
      "outputs": [
        {
          "internalType": "uint256",
          "name": "",
          "type": "uint256"
        }
      ],
      "stateMutability": "view",
      "type": "function"
    }
  ],
  "bytecode": "0x60806040523480156200001157600080fd5b506040516200170a3803806200170a833981810160405281019062000037919062000126565b6000808190555033600760006101000a81548173ffffffffffffffffffffffffffffffffffffffff021916908373ffffffffffffffffffffffffffffffffffffffff16021790555082600181905550816002819055508060038190555033600460006101000a81548173ffffffffffffffffffffffffffffffffffffffff021916908373ffffffffffffffffffffffffffffffffffffffff160217905550600060058190555050505062000182565b600080fd5b6000819050919050565b6200010081620000eb565b81146200010c57600080fd5b50565b6000815190506200012081620000f5565b92915050565b600080600060608486031215620001425762000141620000e6565b5b600062000152868287016200010f565b935050602062000165868287016200010f565b925050604062000178868287016200010f565b9150509250925092565b61157880620001926000396000f3fe6080604052600436106100e85760003560e01c806398b1023d1161008a578063db05d7af11610059578063db05d7af146102d2578063e539345e146102dc578063e5be622f14610307578063f7d4591814610332576100e8565b806398b1023d1461022a578063bbb7e1d414610255578063c0e331811461027e578063c33714bb146102a7576100e8565b806370c8638e116100c657806370c8638e1461016e5780637c797abe146101975780638c118a4c146101d65780639397fcf0146101ff576100e8565b806324ca6893146100ed5780632ed24584146101185780636a38665f14610143575b600080fd5b3480156100f957600080fd5b5061010261035d565b60405161010f9190610ea1565b60405180910390f35b34801561012457600080fd5b5061012d610363565b60405161013a9190610ea1565b60405180910390f35b34801561014f57600080fd5b50610158610436565b6040516101659190610ea1565b60405180910390f35b34801561017a57600080fd5b5061019560048036038101906101909190610f1f565b61043c565b005b3480156101a357600080fd5b506101be60048036038101906101b99190610f78565b6105e3565b6040516101cd93929190610fb4565b60405180910390f35b3480156101e257600080fd5b506101fd60048036038101906101f89190610feb565b61063d565b005b34801561020b57600080fd5b50610214610910565b6040516102219190610ea1565b60405180910390f35b34801561023657600080fd5b5061023f61091d565b60405161024c9190610ea1565b60405180910390f35b34801561026157600080fd5b5061027c60048036038101906102779190610feb565b610923565b005b34801561028a57600080fd5b506102a560048036038101906102a09190610f78565b610acf565b005b3480156102b357600080fd5b506102bc610bec565b6040516102c99190610ea1565b60405180910390f35b6102da610c76565b005b3480156102e857600080fd5b506102f1610daf565b6040516102fe9190610ea1565b60405180910390f35b34801561031357600080fd5b5061031c610db9565b6040516103299190610ea1565b60405180910390f35b34801561033e57600080fd5b50610347610dbf565b604051610354919061113a565b60405180910390f35b60025481565b600080600090505b600680549050811015610431573373ffffffffffffffffffffffffffffffffffffffff16600682815481106103a3576103a261115c565b5b906000526020600020906003020160000160009054906101000a900473ffffffffffffffffffffffffffffffffffffffff1673ffffffffffffffffffffffffffffffffffffffff160361041e57600681815481106104045761040361115c565b5b906000526020600020906003020160020154915050610433565b8080610429906111ba565b91505061036b565b505b90565b60015481565b600760009054906101000a900473ffffffffffffffffffffffffffffffffffffffff1673ffffffffffffffffffffffffffffffffffffffff163373ffffffffffffffffffffffffffffffffffffffff16146104cc576040517f08c379a00000000000000000000000000000000000000000000000000000000081526004016104c390611285565b60405180910390fd5b60005b6006805490508110156105df578173ffffffffffffffffffffffffffffffffffffffff16600682815481106105075761050661115c565b5b906000526020600020906003020160000160009054906101000a900473ffffffffffffffffffffffffffffffffffffffff1673ffffffffffffffffffffffffffffffffffffffff16036105cc57600681815481106105685761056761115c565b5b9060005260206000209060030201600080820160006101000a81549073ffffffffffffffffffffffffffffffffffffffff02191690556001820160009055600282016000905550506000808154809291906105c2906112a5565b91905055506105df565b80806105d7906111ba565b9150506104cf565b5050565b600681815481106105f357600080fd5b90600052602060002090600302016000915090508060000160009054906101000a900473ffffffffffffffffffffffffffffffffffffffff16908060010154908060020154905083565b600760009054906101000a900473ffffffffffffffffffffffffffffffffffffffff1673ffffffffffffffffffffffffffffffffffffffff163373ffffffffffffffffffffffffffffffffffffffff16146106cd576040517f08c379a00000000000000000000000000000000000000000000000000000000081526004016106c490611285565b60405180910390fd5b80471015610710576040517f08c379a00000000000000000000000000000000000000000000000000000000081526004016107079061131a565b60405180910390fd5b6000805b60068054905081101561076757600681815481106107355761073461115c565b5b90600052602060002090600302016001015482610752919061133a565b9150808061075f906111ba565b915050610714565b5060008183610776919061139d565b905060005b600680549050811015610909578473ffffffffffffffffffffffffffffffffffffffff16600682815481106107b3576107b261115c565b5b906000526020600020906003020160000160009054906101000a900473ffffffffffffffffffffffffffffffffffffffff1673ffffffffffffffffffffffffffffffffffffffff16036108f6578473ffffffffffffffffffffffffffffffffffffffff166108fc859081150290604051600060405180830381858888f19350505050158015610846573d6000803e3d6000fd5b5060005b6006805490508110156108f457826006828154811061086c5761086b61115c565b5b90600052602060002090600302016001015461088891906113ce565b6006828154811061089c5761089b61115c565b5b9060005260206000209060030201600201546108b89190611410565b600682815481106108cc576108cb61115c565b5b90600052602060002090600302016002018190555080806108ec906111ba565b91505061084a565b505b8080610901906111ba565b91505061077b565b5050505050565b6000804790508091505090565b60005481565b600760009054906101000a900473ffffffffffffffffffffffffffffffffffffffff1673ffffffffffffffffffffffffffffffffffffffff163373ffffffffffffffffffffffffffffffffffffffff16146109b3576040517f08c379a00000000000000000000000000000000000000000000000000000000081526004016109aa90611285565b60405180910390fd5b60025460005411156109fa576040517f08c379a00000000000000000000000000000000000000000000000000000000081526004016109f1906114b6565b60405180910390fd5b600660405180606001604052808473ffffffffffffffffffffffffffffffffffffffff1681526020018381526020016000815250908060018154018082558091505060019003906000526020600020906003020160009091909190915060008201518160000160006101000a81548173ffffffffffffffffffffffffffffffffffffffff021916908373ffffffffffffffffffffffffffffffffffffffff16021790555060208201518160010155604082015181600201555050600080815480929190610ac6906111ba565b91905055505050565b600760009054906101000a900473ffffffffffffffffffffffffffffffffffffffff1673ffffffffffffffffffffffffffffffffffffffff163373ffffffffffffffffffffffffffffffffffffffff1614610b5f576040517f08c379a0000000000000000000000000000000000000000000000000000000008152600401610b5690611285565b60405180910390fd5b80471015610ba2576040517f08c379a0000000000000000000000000000000000000000000000000000000008152600401610b999061131a565b60405180910390fd5b3373ffffffffffffffffffffffffffffffffffffffff166108fc829081150290604051600060405180830381858888f19350505050158015610be8573d6000803e3d6000fd5b5050565b600060015460005410158015610c06575060025460005411155b15610c145760019050610c73565b6001546000541080610c2a575060025460005410155b15610c385760029050610c73565b6040517f08c379a0000000000000000000000000000000000000000000000000000000008152600401610c6a90611522565b60405180910390fd5b90565b600060035490506000349050600060648383610c9291906113ce565b610c9c919061139d565b82610ca79190611410565b905060005b600680549050811015610da9573373ffffffffffffffffffffffffffffffffffffffff1660068281548110610ce457610ce361115c565b5b906000526020600020906003020160000160009054906101000a900473ffffffffffffffffffffffffffffffffffffffff1673ffffffffffffffffffffffffffffffffffffffff1603610d96578160068281548110610d4657610d4561115c565b5b90600052602060002090600302016002016000828254610d66919061133a565b925050819055508183610d799190611410565b60056000828254610d8a919061133a565b92505081905550610da9565b8080610da1906111ba565b915050610cac565b50505050565b6000600554905090565b60035481565b60606006805480602002602001604051908101604052809291908181526020016000905b82821015610e7f57838290600052602060002090600302016040518060600160405290816000820160009054906101000a900473ffffffffffffffffffffffffffffffffffffffff1673ffffffffffffffffffffffffffffffffffffffff1673ffffffffffffffffffffffffffffffffffffffff1681526020016001820154815260200160028201548152505081526020019060010190610de3565b50505050905090565b6000819050919050565b610e9b81610e88565b82525050565b6000602082019050610eb66000830184610e92565b92915050565b600080fd5b600073ffffffffffffffffffffffffffffffffffffffff82169050919050565b6000610eec82610ec1565b9050919050565b610efc81610ee1565b8114610f0757600080fd5b50565b600081359050610f1981610ef3565b92915050565b600060208284031215610f3557610f34610ebc565b5b6000610f4384828501610f0a565b91505092915050565b610f5581610e88565b8114610f6057600080fd5b50565b600081359050610f7281610f4c565b92915050565b600060208284031215610f8e57610f8d610ebc565b5b6000610f9c84828501610f63565b91505092915050565b610fae81610ee1565b82525050565b6000606082019050610fc96000830186610fa5565b610fd66020830185610e92565b610fe36040830184610e92565b949350505050565b6000806040838503121561100257611001610ebc565b5b600061101085828601610f0a565b925050602061102185828601610f63565b9150509250929050565b600081519050919050565b600082825260208201905092915050565b6000819050602082019050919050565b61106081610ee1565b82525050565b61106f81610e88565b82525050565b60608201600082015161108b6000850182611057565b50602082015161109e6020850182611066565b5060408201516110b16040850182611066565b50505050565b60006110c38383611075565b60608301905092915050565b6000602082019050919050565b60006110e78261102b565b6110f18185611036565b93506110fc83611047565b8060005b8381101561112d57815161111488826110b7565b975061111f836110cf565b925050600181019050611100565b5085935050505092915050565b6000602082019050818103600083015261115481846110dc565b905092915050565b7f4e487b7100000000000000000000000000000000000000000000000000000000600052603260045260246000fd5b7f4e487b7100000000000000000000000000000000000000000000000000000000600052601160045260246000fd5b60006111c582610e88565b91507fffffffffffffffffffffffffffffffffffffffffffffffffffffffffffffffff82036111f7576111f661118b565b5b600182019050919050565b600082825260208201905092915050565b7f536f6d656e7465206f2070726f70726965746172696f20646f20636f6e74726160008201527f746f20706f646520657865637574617220657374612066756e63616f2e000000602082015250565b600061126f603d83611202565b915061127a82611213565b604082019050919050565b6000602082019050818103600083015261129e81611262565b9050919050565b60006112b082610e88565b9150600082036112c3576112c261118b565b5b600182039050919050565b7f53616c646f20696e737566696369656e7465206e6f20636f6e747261746f0000600082015250565b6000611304601e83611202565b915061130f826112ce565b602082019050919050565b60006020820190508181036000830152611333816112f7565b9050919050565b600061134582610e88565b915061135083610e88565b92508282019050808211156113685761136761118b565b5b92915050565b7f4e487b7100000000000000000000000000000000000000000000000000000000600052601260045260246000fd5b60006113a882610e88565b91506113b383610e88565b9250826113c3576113c261136e565b5b828204905092915050565b60006113d982610e88565b91506113e483610e88565b92508282026113f281610e88565b915082820484148315176114095761140861118b565b5b5092915050565b600061141b82610e88565b915061142683610e88565b925082820390508181111561143e5761143d61118b565b5b92915050565b7f4f206e756d65726f206d6178696d6f206465207573756172696f73206a61206660008201527f6f69206174696e6769646f2e0000000000000000000000000000000000000000602082015250565b60006114a0602c83611202565b91506114ab82611444565b604082019050919050565b600060208201905081810360008301526114cf81611493565b9050919050565b7f4572726f20616f20766572696669636172206f20636f6e747261746f00000000600082015250565b600061150c601c83611202565b9150611517826114d6565b602082019050919050565b6000602082019050818103600083015261153b816114ff565b905091905056fea2646970667358221220999fd40d231a70615fb02a9bad9a8d9e4e2c59b818b1fe02f16645ec052b9c5464736f6c63430008130033",
  "immutableReferences": {},
  "source": "//SPDX-License-Identifier: MIT\r\npragma solidity ^0.8.0;\r\n\r\n//importao de bilioteca, a qual ir fornecer funes herdadas de um contrato\r\n//o qual ir possibilitar a realizao de transaes\r\nimport \"@openzeppelin/contracts/token/ERC20/IERC20.sol\";\r\n// Contrato inteligente / Smart contract\r\ncontract MeuContrato {\r\n    \r\n    // Armazena a quantidade de usurios atualmente no contrato\r\n    uint public quantUsuario;\r\n    \r\n    // Armazena a quantidade mnima e mxima de usurios permitida por contrato\r\n    uint public minPessoas;\r\n    uint public maxPessoas;\r\n    \r\n    // Armazena a taxa de administrao do contrato\r\n    uint public taxaAdmin;\r\n        \r\n    //referente a user stories de nmero 5, as variveis abaixo suprem partes dos requisitos desta user storie, ao definir uma carteira central para receber as taxas de administrao do contrato.\r\n    // Carteira central que ir armazenar informaes sobre a carteira da *Coover*\r\n    address carteiraCentral;\r\n    uint fundosAdm;\r\n\r\n    // Armazena a lista de carteiras de usurios\r\n    Carteira[] public carteira;\r\n    \r\n    // Estrutura para armazenar a Carteira de um *Usurio*\r\n    struct Carteira {\r\n        address carteiraUsuario;\r\n        uint valorAparelho;\r\n        uint saldo;\r\n    }\r\n    \r\n    // Endereo do proprietrio do contrato, que  o ADMINISTRADOR [IMPORTANTE: apenas o proprietrio pode adicionar e remover usurios]\r\n    address admin; // nota-se que encurtamos o nome para ser melhor para o cdigo.\r\n    \r\n    // Construtor do contrato que define a quantidade mnima e mxima de usurios, alm de definir o dono do contrato e a taxa de administrao\r\n    constructor(uint _minPessoas, uint _maxPessoas, uint _taxaAdmin) { \r\n        quantUsuario = 0;\r\n        admin = msg.sender;\r\n        minPessoas = _minPessoas;\r\n        maxPessoas = _maxPessoas;\r\n        taxaAdmin = _taxaAdmin;\r\n        carteiraCentral = payable(msg.sender);\r\n        fundosAdm = 0;\r\n    }\r\n        \r\n        //referente a user storie de nmero 4, o cdigo abaixo supre a user stories de nmero 4, pois ao criar o modificador 'apenasAdmin' que cede a permisso,\r\n        //apenas ao dono do contrato / proprietrio.  possvel criar o nvel de permisso que o gerente de seguros precisa, que  prevista na user storie.\r\n        //modificador que da a permisso apenas para o dono do contrato executar uma funo\r\n        modifier apenasAdmin() {\r\n        require(msg.sender == admin, \"Somente o proprietario do contrato pode executar esta funcao.\");\r\n        _;\r\n    }\r\n    \r\n    // Adicionar um novo usurio ao projeto\r\n    function adicionarUsuario(address cliente,uint valorAssegurado) public apenasAdmin {\r\n        \r\n        // Verifica se a quantidade mxima de usurios j foi atingida\r\n        require(quantUsuario <= maxPessoas, \"O numero maximo de usuarios ja foi atingido.\");\r\n        \r\n        // Adiciona o usurio  lista de carteiras com seu saldo e valor do aparelho celular\r\n        carteira.push(Carteira(payable(cliente), valorAssegurado, 0));\r\n        \r\n        // Incrementa a quantidade de usurios\r\n        quantUsuario++;\r\n    }\r\n    \r\n    //funo para uma carteira adicionar dinheiro no smart contract\r\n    function adicionarDinheiro() public payable{\r\n        \r\n        //armazena a taxa do adminstrador\r\n        uint taxa = taxaAdmin;\r\n        \r\n        //armazena o valor do deposito\r\n        uint valorDeposito = msg.value;\r\n        \r\n        //armazena o valor que o suario deve receber, uma vez calculada a taxa adiministrativa\r\n        uint valorUsuario = valorDeposito - (valorDeposito * taxa / 100);\r\n        \r\n        //passa pelas carteiras de membros do contrato\r\n        for (uint i = 0; i < carteira.length; i++) {\r\n        \r\n            // Verifica se a carteira do usurio corresponde ao endereo de quem chamou a funo\r\n            if (carteira[i].carteiraUsuario == msg.sender) {\r\n        \r\n            // Adiciona os fundos a carteira do suario, tirando a taxa adiministrativa e a tranferindo para a Coover\r\n            carteira[i].saldo += valorUsuario;\r\n            fundosAdm += valorDeposito - valorUsuario;\r\n            \r\n            // Sai do loop\r\n            break;\r\n            }\r\n        }\r\n    }\r\n    \r\n    // Funo para ver o saldo da carteira que est chamando a funo\r\n    // Exemplo: um usurio quer ver no front, o saldo da carteira dele, ele poder visualizar o saldo da carteira dele, \r\n    // pois a funo ir verificar se o endereo da carteira que est chamando a funo  igual ao endereo da carteira do usurio \r\n    function verSaldo() external view returns(uint){\r\n        for (uint i = 0; i < carteira.length; i++) {\r\n        \r\n            // Verifica se a carteira do usurio corresponde ao endereo fornecido\r\n            if (carteira[i].carteiraUsuario == msg.sender) {\r\n        \r\n            // Retorna o saldo do suario\r\n            return carteira[i].saldo;\r\n            \r\n            // Sai do loop\r\n            break;\r\n            }\r\n        }\r\n    }\r\n    \r\n    // Funo para ver quanto de dinheiro tem no contrato, em suma, visualizar o saldo do contrato.\r\n    function contratoSaldo() public view returns (uint) {\r\n    uint balance = address(this).balance; // retorna quanto de fundo o contrato possui\r\n    return  balance;\r\n    }\r\n    \r\n    // referente a user storie 6, o cdigo abaixo, supre parte da user stories de nmero 6, pois ao criar uma funo que permita visualizar carteiras que fazem parte do contrato,\r\n    //  um passo essencial para permitir que o usurio possa visualizar as pessoas que fazem parte de seu contrato, assim como previsto pela user storie\r\n    // funo que permite visualizar carteiras participantes do contrato\r\n    function visualizarCarteiras() public view returns (Carteira[] memory) {\r\n        return carteira;\r\n    }\r\n    \r\n    // Funo para ver o saldo do administrador do contrato\r\n    function verSaldoAdm() external view returns(uint){\r\n        return fundosAdm;\r\n    }\r\n\r\n    // Funo para o administrador conseguir retirar taxas do contrato (retirar o valor que o administrador ganha, o qual j estar destinado a ele)\r\n    function retirarTaxas(uint256 quantidade) public apenasAdmin{\r\n        \r\n        //confere se o contrato tem dinheiro suficiente\r\n        require(address(this).balance >= quantidade, \"Saldo insuficiente no contrato\");\r\n        \r\n        //trafere o valor j \"separado\" das taxas cobradas para o adiministrador, quando chama esta funo\r\n        payable(msg.sender).transfer(quantidade);\r\n    }\r\n\r\n    //referente a user storie de nmero 10, o cdigo abaixo, supre parte da user stories de nmero 10, pois ao realizar a criao de uma funo que transfira dinheiro\r\n    //do fundo do smartcontract para outra carteira, gera a possibilidade do gestor de seguros realizar a transferncia de uma indenizao a um membro do contrato\r\n    //assim como previsto pela user storie\r\n    //funo para tranferir idenizao a um suario\r\n    // Funo para o administrador conseguir fornecer a indenizao a um membro do contrato\r\n    function indenizar(address _indenizado,uint256 valorIndenizacao) public apenasAdmin{\r\n    \r\n        //confere se o contrato tem dinheiro suficiente\r\n        require(address(this).balance >= valorIndenizacao, \"Saldo insuficiente no contrato\");\r\n        \r\n        //calcula quantos % do valor total dos aparelhos assegurados, a retirada representa\r\n        uint valorTotalAssegurado = 0;\r\n        \r\n        // passa pelas carteiras do contrato e soma o valor total dos aparelhos assegurados\r\n        for (uint i = 0; i < carteira.length; i++){ \r\n            valorTotalAssegurado += carteira[i].valorAparelho;\r\n        }\r\n\r\n        //calcula quanto deve ser retirado do saldo de cada usuario em %, do saldo de cada participante.\r\n        uint valorDecrecido = valorIndenizacao / valorTotalAssegurado;\r\n        \r\n        //trafere o dinheiro para quem vai ser indenizado e diminui o valor relativo ao aparelho de cada usurio\r\n        for (uint i = 0; i < carteira.length; i++){\r\n            if (carteira[i].carteiraUsuario == _indenizado) {\r\n                payable(_indenizado).transfer(valorIndenizacao);\r\n                for (uint i = 0; i < carteira.length; i++){\r\n                    carteira[i].saldo = carteira[i].saldo - (carteira[i].valorAparelho * valorDecrecido);\r\n                }\r\n            }\r\n        }\r\n    }\r\n\r\n    // Funo para remover um usurio do projeto\r\n    function removerUsuario(address _usuario) public apenasAdmin {\r\n        \r\n        // Verifica cada carteira do projeto\r\n        for (uint i = 0; i < carteira.length; i++) {\r\n            \r\n            // Verifica se a carteira do usurio corresponde ao endereo fornecido\r\n            if (carteira[i].carteiraUsuario == _usuario) {\r\n            \r\n            // Remove o usurio da lista de carteiras\r\n            delete carteira[i];\r\n            \r\n            // Atualiza o nmero de usurios\r\n            quantUsuario--;\r\n            \r\n                // Sai do loop\r\n                break;\r\n            }\r\n        }\r\n    }\r\n    \r\n    // corresponde user storie 8, o cdigo abaixo, supre parte da user stories de nmero 8, pois ao criar condies que verificam se o contrato est vlido e\r\n    // se possui o nmero necessrio de pessoas para continuar, pode ser usado para garantir que o contrato s seja executado caso atenda as condies para ser iniciado\r\n    // Verifica a viabilidade do contrato\r\n    function viabilidadeContrato() public view returns (uint) {\r\n        \r\n        //Verifica se o contrato est vlido mas no possui o nmero ideal de pessoas para funcionar\r\n        if (quantUsuario >= minPessoas  && quantUsuario <= maxPessoas) {\r\n            return 1; // Contrato Ativo\r\n            \r\n        //Verifica se o contrato est vlido mas no possui o nmero de pessoas ideal para funcionar\r\n        } else if (quantUsuario < minPessoas || quantUsuario >= maxPessoas) {\r\n            return 2; // Contrato em Progresso        \r\n        } else {\r\n            revert(\"Erro ao verificar o contrato\");\r\n        }\r\n    }\r\n}",
  "sourcePath": "C:\\Users\\Inteli\\Desktop\\deploy\\contracts\\smartContract.sol",
  "compiler": {
    "name": "solc",
    "version": "0.8.19+commit.7dd6d404.Emscripten.clang"
  },
  "schemaVersion": "3.4.13",
  "updatedAt": "2023-03-08T21:47:24.439Z",
  "devdoc": {
    "kind": "dev",
    "methods": {},
    "version": 1
  },
  "userdoc": {
    "kind": "user",
    "methods": {},
    "version": 1
  }
}